:200000000C946E0A0C94960A0C94960A0C94960A0C94960A0C94960A0C94960A0C94960A08
:200020000C94960A0C94960A0C94960A0C94960A0C94960A0C94960A0C94960A0C94960AC0
:200040000C9407160C94960A0C943C180C948A180C94960A0C94960A0C94960A0C94960A6D
:200060000C94960A0C94960AC07010101010101010101010101010F00107040404040404F0
:200080000404040404040407C07010101010101010101010D0D010F00107040404040404AD
:2000A0000404040405050407C07010101010101010D0D010D0D010F001070404040404040B
:2000C0000405050405050407C07010101010D0D010D0D010D0D010F0010704040404050567
:2000E0000405050405050407C07010D0D010D0D010D0D010D0D010F00107040505040505C5
:2001000004050504050504070E162646FEFE4626160E00000000000000000000FFFF00009E
:2001200000000000000000000E162646FEFE4626160E00000000000000000000FFFF00E0C5
:2001400000000000000000000E162646FEFE4626160E00000000000000000000FFFF00E0A5
:2001600000F00000000000000E162646FEFE4626160E00000000000000000000FFFF00E095
:2001800000F000F8000000000E162646FEFE4626160E00000000000000000000FFFF00E07D
:2001A00000F000F800FC0000000080C0E0E0F0F0F0F0F0F0E0E0C0800000F0FEFFFFFF0FC1
:2001C00001000000000107FFFFFFFFF83FFFFFFFFFC0000000000000E0FFFFFFFF1F00012B
:2001E00003070F0F1F1E1E1E1E1F0F0F070300000000C0C0E0E0E0E0E0F0F0F00000000049
:20020000000000000303010101FFFFFFFFFF00000000000000000000000000FFFFFFFFFFDF
:2002200000000000000000001E1E1E1E1E1F1F1F1F1F1E1E1E1E1E000000C0E0E0E0F0F0B7
:20024000F0F0F0F0E0E0C08000000000070301010000000001C1FFFFFFFF3F000000008055
:20026000C0E0F0F8FC7E3F1F0F0701000000001E1F1F1F1F1F1E1E1E1E1E1E1E1E1E1E0022
:200280000000E0E0F0F0F0F0F0F0F0F0E0E0C000000000000301C0C0C0C0C0E0E1FF7F7F1C
:2002A0003F1F000000800000030303030303078FFFFFFEFCF800000F0F1F1E1E1E1E1E1ED7
:2002C0001F0F0F0F07030000000000000000000080C0F0F0F0F0F0F0000000000080C0F0B8
:2002E000FC7E1F0F03FFFFFFFFFF0000F0FCFEFFFFF3F1F0F0F0F0FFFFFFFFFFF0F00000F1
:200300000000000000000000001F1F1F1F1F00000000F0F0F0F0F0F0F0F0F0F0F0F0F0F022
:2003200000000000FFFFFFFFE0E0E0E0E0E0C0C0800000000080010101010101010103876F
:20034000FFFFFFFFFC00000F0F1F1E1E1E1E1E1E1F0F0F07070100000000000080C0E0E068
:20036000F0F0F0F0F0F0F0F0000000E0FCFFFFFF8FC3C1E1E0E0E0E0C0C18000003FFFFF72
:20038000FFFF87030101010187FFFFFFFFFE00000103070F0F1F1E1E1E1F1F0F0F07030048
:2003A000F0F0F0F0F0F0F0F0F0F0F0F0F0F0F0F0F07000000000000000000080E0F8FEFF88
:2003C0003F0F0300000000000080E0F8FEFF7F1F030000000000000000181E1F1F1F07013B
:2003E00000000000000000000000C0C0E0E0F0F0F0F0F0F0F0E0E0C00000001F3F7F7FFF52
:20040000F1E0C0C0E0F1FF7F7F3F0F00F0FCFCFEFF0F0707030307070FFFFEFEFCF001035F
:20042000070F0F1F1F1E1E1E1E1F1F0F0F0703010080C0E0E0F0F0F0F0F0F0E0E0C08000DA
:2004400000007EFFFFFFFFC38100000081C3FFFFFFFFF800000103070F0F0F0F0F0F87E3D7
:20046000FFFFFF7F0F00000F1E1E1E1E1E1E1E1F0F0F070301000000000000000080C0E0A8
:20048000E0F0F0F0F0F0F0E0E0C0800000000000000000F0FEFFFFFF0F01000000000107D9
:2004A000FFFFFFFFF80000000000003FFFFFFFFFC0000000000000E0FFFFFFFF1F00000052
:2004C000000000000103070F0F1F1E1E1E1E1F0F0F0703000000000000000000C0C0E0E0D5
:2004E000E0E0E0F0F0F000000000000000000000000000000303010101FFFFFFFFFF000088
:200500000000000000000000000000000000000000FFFFFFFFFF00000000000000000000E0
:20052000000000001E1E1E1E1E1F1F1F1F1F1E1E1E1E1E00000000000000000000C0E0E074
:20054000E0F0F0F0F0F0F0E0E0C08000000000000000000000070301010000000001C1FF4E
:20056000FFFFFF3F0000000000000000000080C0E0F0F8FC7E3F1F0F070300000000000046
:20058000000000001E1F1F1F1F1F1E1E1E1E1E1E1E1E1E1E000000000000000000E0E0F0C6
:2005A000F0F0F0F0F0F0F0E0E0C000000000000000000000000301C0C0C0C0C0E0E1FF7F28
:2005C0007F3F1F000000000000000000800000030303030303078FFFFFFEFCF80000000026
:2005E000000000000F0F1F1E1E1E1E1E1E1F0F0F0F070300000000000000000000000000B4
:20060000000080C0F0F0F0F0F0F0000000000000000000000080C0F0FC7E1F0F03FFFFFF22
:20062000FFFF0000000000000000F0FCFEFFFFF3F1F0F0F0F0FFFFFFFFFFF0F0F000000065
:20064000000000000000000000000000001F1F1F1F1F0000000000000000000000F0F0F02F
:20066000F0F0F0F0F0F0F0F0F0F00000000000000000000000FFFFFFFFE0E0E0E0E0C0C03E
:2006800080000000000000000000000080010101010101010387FFFFFFFFFE0000000000CF
:2006A000000000000F0F1F1E1E1E1E1E1F0F0F07070300000000000000000000000080C0D9
:2006C000E0E0F0F0F0F0F0F0F0F0000000000000000000E0FCFFFFFF8FC3C1E1E0E0E0E08D
:2006E000C0C18000000000000000003FFFFFFFFF87030101010187FFFFFFFFFE00000000AF
:20070000000000000103070F0F1F1E1E1E1F1F0F0F07030000000000000000F0F0F0F0F021
:20072000F0F0F0F0F0F0F0F0F0F0F0F0F0000000000000000000000000000000C0F8FEFFD4
:20074000FF7F0F0300000000000000000000000080F0FCFFFFFF3F0F010000000000000051
:20076000000000000000181E1F1F1F1F0701000000000000000000000000000000C0C0E05F
:20078000E0F0F0F0F0F0F0F0E0E0C00000000000000000001F3F7F7FFFF1E0C0C0E0F1FFED
:2007A0007F7F3F0F00000000000000F0FCFCFEFF0F0707030307070FFFFEFEFCF0000000E1
:2007C0000000000103070F0F1F1F1E1E1E1E1F1F0F0F0703010000000000000080C0E0E0D3
:2007E000F0F0F0F0F0F0E0E0C0800000000000000000007EFFFFFFFFC38100000081C3FF58
:20080000FFFFFFF800000000000000000103070F0F0F0F0F0F87C3FFFFFF7F0F00000000A9
:20082000000000000F1E1E1E1E1E1E1E1F0F0F07030100000000000000000000000000008F
:20084000E0F0F0F0F0F0F0E000000000000000000000000000C0F8FFFFFF1F03073FFFFF1D
:20086000FFF8C000000000000000C0F8FFFFFF7F7F7878787878797F7FFFFFFFF8C000008A
:20088000101E1F1F1F1F0300000000000000000000031F1F1F1F1E10000000F0F0F0F0F04E
:2008A000F0F0F0F0F0F0F0F0E0E0C08000000000000000FFFFFFFFFFC0C0C0C0C0E1E1FF3C
:2008C0007F7F3F0F00000000000000FFFFFFFFFF030303030303078FFFFFFFFEF800000036
:2008E0000000001F1F1F1F1F1E1E1E1E1E1E1F1F0F0F07030000000000000000000080C003
:20090000E0E0E0F0F0F0F0F0F0F0F0F0E00000000000E0F8FEFFFFFF1F07030101000000E9
:20092000000000000100000000001F7FFFFFFFFFF0C080000000000000000000800000006C
:2009400000000000010307070F0F1F1F1E1E1E1E1E1E1F0F0F00000000F0F0F0F0F0F0F0A8
:20096000F0F0F0F0F0F0F0E0E0C0C0800000000000FFFFFFFFFF0000000000000101030720
:200980001FFFFFFFFFFE000000FFFFFFFFFF000000000000000080C0F0FFFFFFFF7F000098
:2009A000001F1F1F1F1F1E1E1E1E1E1E1F1F0F0F070703010000000000000000F0F0F0F0BA
:2009C000F0F0F0F0F0F0F0F0F0F000000000000000000000FFFFFFFFFFC0C0C0C0C0C0C07C
:2009E000C0C000000000000000000000FFFFFFFFFF03030303030303030300000000000061
:200A0000000000001F1F1F1F1F1E1E1E1E1E1E1E1E1E1E00000000000000000000F0F0F03F
:200A2000F0F0F0F0F0F0F0F0F0F0F000000000000000000000FFFFFFFFFF8080808080806B
:200A400080800000000000000000000000FFFFFFFFFF070707070707070700000000000063
:200A600000000000001F1F1F1F1F000000000000000000000000000000000080E0F8FCFC8B
:200A8000FE7E3E1E1E3E7EFEFCFCF8E080000000000000FFFFFFFFFFFF000000000000FF5D
:200AA000FFFFFFFFFF000000000000030F3F7F7FFFFCF8F0F0F8FCFF7F7F3F0F03000000D7
:200AC0000000000000F0F0F0F0F8FCFEFEFEFEFE000000000000000000000000000000006C
:200AE0000000FFFFFFFFFFFF00000000000000000000000000F0F0F0F0F0FFFFFFFFFFFF52
:200B0000F0F0F0F0F00000000000000000FC7C3C3E1E1E1E1E3EFEFEFCFCF8E000000000B1
:200B20000000000000000000000080C0F0F8FFFF7F3F1F070000000000000000F0F8FCFCCB
:200B4000FEFFFFFFF7F3F1F0F0F0F0F0F000000000000000007C3C3C1E1E1E1E1E3EFEFE5B
:200B6000FCFCF8F0000000000000000000000000003C3C3C3C3E7FFFFFF7E3E180000000AF
:200B8000000000007E7C78F8F0F0F0F0F0F8F8FF7F7F3F1F0F0000000000000000000000E1
:200BA000C0E0F8FCFEFEFEFEFEFE000000000000000000C0F0F8FEFF9F8F8381FFFFFFFFDA
:200BC000FFFF808080000000000000070707070707070707FFFFFFFFFFFF07070700000049
:200BE0000000000000FEFEFEFEFEFE1E1E1E1E1E1E1E1E1E0000000000000000003F3F1F56
:200C00001F1F1F1E1E3E7EFEFEFCFCF8E0000000000000007C7878F8F0F0F0F0F0F8FC7F2C
:200C20007F7F3F1F070000000000000000C0E0F0F8FCFC7E3E1E1E1E1E1E3E000000000041
:200C400000000000FEFFFFFFFFFF1D1C1E1E3EFEFEFCFCF8E000000000000000030F3F7F4C
:200C60007FFFFCF0F0F0F8FF7F7F3F1F07000000000000001E1E1E1E1E1E1E1E1E9EFEFE28
:200C8000FEFEFEFE3E00000000000000000000000080E0F8FEFFFFFF3F0F0300000000007A
:200CA000000000000080E0F8FEFFFFFF3F0F0300000000000000000000000000E0F8FCFCC0
:200CC000FCFE3E1E1E3EFEFEFCFCF8F00000000000000080C1E7EFFFFF7F3E3E7C7CFFFF80
:200CE000FFF7E3E1800000000000000F3F3F7F7FFFF8F0F0F0F0F8FF7F7F3F1F0F00000016
:200D0000000000C0F0F8FCFCFE3E1E1E1E7EFEFCFCF8E080000000000000000F3F7F7FFF86
:200D2000FFF8F0F07070FFFFFFFFFFFF000000000000000000F8F0F0F0F0F0F8FC7F7F3F29
:200D40001F0F0700000000000000F0FCFEFF0F070FFFFEFCF000000000000F3F7FFFF0E0CB
:200D6000F0FF7F3F0F0000000000001C1C1CFFFFFFFF000000000000000000E0E0E0FFFFC9
:200D8000FFFFE0E0E00000000000000E070707078FFFFEFE7C000000000000E0F0F8FCFEC3
:200DA000EFE7E3E1E0E0000000000E0F07C7C7C7E7FF7E7E3C000000000070F0E0E1E1E15F
:200DC000F3FF7F7F1E00000000000080E0701C0EFFFFFFFF0000000000000F0F0E0E0E0EB9
:200DE000FFFFFFFF0E0E0000000000FFFFFFFFC7C7C7C78707000000000070E1E1E1E1E160
:200E0000F3FF7F3F1F0000000000E0F8FCFEDFEFE7E7E7C78000000000000F3F7FFFF0E0CB
:200E2000F1FF7F3F1F00000000000707070787E7FFFFFF3F0F000000000080E0F8FEFF3F7C
:200E40000F0300000000000000003C7EFEFFE7C7C7FFFE7E3C00000000003C7F7FFFF1E192
:200E6000E3FF7F7F3E0000000000F8FCFEFF8F070FFFFEFCF0000000000001E3E7E7E7F745
:200E8000FB7F3F1F0700000000000000003E5B4F5B3E3E6B4F6B3E1C3E7C3E1C183C7E3C13
:200EA000181C577D571C1C5E7F5E1C00183C1800FFE7C3E7FF0018241800FFE7DBE7FF301E
:200EC000483A060E2629792926407F050507407F05253F5A3CE73C5A7F3E1C1C08081C1C1D
:200EE0003E7F14227F22145F5F005F5F06097F017F006689956A606060606094A2FFA29487
:200F000008047E040810207E201008082A1C08081C2A08081E101010100C1E0C1E0C30387B
:200F20003E3830060E3E0E06000000000000005F00000007000700147F147F14242A7F2A07
:200F400012231308646236495620500008070300001C2241000041221C002A1C7F1C2A0813
:200F6000083E080800807030000808080808000060600020100804023E5149453E00427FB9
:200F8000400072494949462141494D331814127F1027454545393C4A49493141211109078B
:200FA0003649494936464949291E000014000000403400000008142241141414141400411F
:200FC00022140802015909063E415D594E7C1211127C7F494949363E414141227F414141C3
:200FE0003E7F494949417F090909013E414151737F0808087F00417F41002040413F017F82
:20100000081422417F404040407F021C027F7F0408107F3E4141413E7F090909063E4151EB
:20102000215E7F09192946264949493203017F01033F4040403F1F2040201F3F4038403F35
:20104000631408146303047804036159494D43007F4141410204081020004141417F0402B9
:201060000102044040404040000307080020545478407F284444383844444428384444281C
:201080007F385454541800087E090218A4A49C787F0804047800447D40002040403D007F1C
:2010A0001028440000417F40007C047804787C080404783844444438FC182424181824242C
:2010C00018FC7C08040408485454542404043F44243C4040207C1C2040201C3C4030403C19
:2010E00044281028444C9090907C4464544C4400083641000000770000004136080002018C
:201100000204023C2623263C1EA1A161123A4040207A385454555921555579412154547865
:2011200041215554784020545579400C1E52721239555555593954545459395554545800BD
:2011400000457C410002457D420001457C40F0292429F0F0282528F07C54554500205454A8
:201160007C547C0A097F4932494949323248484832324A4848303A4141217A3A42402078E6
:20118000009DA0A07D39444444393D4040403D3C24FF2424487E4943662B2FFC2F2BFF0966
:2011A00029F620C0887E090320545479410000447D413048484A32384040227A007A0A0A7C
:2011C000727D0D19317D2629292F28262929292630484D4020380808080808080808382FB2
:2011E00010C8ACBA2F102834FA00007B000008142A142222142A1408AA005500AAAA55AA57
:2012000055AA000000FF00101010FF00141414FF001010FF00FF1010F010F0141414FC0000
:201220001414F700FF0000FF00FF1414F404FC141417101F10101F101F1414141F0010101F
:2012400010F0000000001F101010101F10101010F010000000FF101010101010101010FF42
:2012600010000000FF140000FF00FF00001F10170000FC04F414141710171414F404F40099
:2012800000FF00F714141414141414F700F7141414171410101F101F141414F4141010F0B5
:2012A00010F000001F101F0000001F14000000FC140000F010F01010FF10FF141414FF1430
:2012C0001010101F00000000F010FFFFFFFFFFF0F0F0F0F0FFFFFF0000000000FFFF0F0FFB
:2012E0000F0F0F38444438447C2A2A3E147E02020606027E027E0263554941633844443C32
:2013000004407E201E2006027E020299A5E7A5991C2A492A1C4C7201724C304A4D4D3030FA
:2013200048784830BC625A463D3E494949007E0101017E2A2A2A2A2A44445F444440514A46
:20134000444040444A51400000FF0103E080FF000008086B6B083612362436060F090F064F
:20136000000018180000001010003040FF0101001F01011E00191D1712003C3C3C3C00001E
:2013800000000000000000240027002A0000000000250028002B00000000002300260029EE
:2013A0000004040404040404040202020202020303030303030102040810204080010204E9
:2013C000081020010204081020000000070002010000030406000000000000000000407AC5
:2013E00010F35A00A0724E18090010A5D4E80000E87648170000E40B54020000CA9A3B00FD
:201400000000E1F505000080969800000040420F000000A08601000000102700000000E86C
:2014200003000000006400000000000A00000000000100000000002C76D888DC674F08237B
:20144000DFC1DFAE59E1B1B796E5E3E453C63AE651997696E8E6C28426EB898C9B62ED40E8
:201460007C6FFCEFBC9C9F40F2BAA56FA5F490055A2AF75C936B6CF9676DC11BFCE0E40DBA
:2014800047FEF520E6B500D0ED902E0300943577050080841E080000204E0A000000C80C1E
:2014A000333333330F986E12831141EF8D2114893BE65516CFFEE6DB18D1844B381BF77C92
:2014C0001D901DA4BBE424203284725E228100C9F124ECA1E53D2700240DF61911241FBE8C
:2014E000CFEFD8E0DEBFCDBF12E0A0E0B1E0EAE2FAE302C005900D92AC36B107D9F717E04A
:20150000ACE6B2E001C01D92AD37B107E1F714E1CCEDD4E104C02297FE010E94D81CC83D49
:20152000D107C9F70E944C1A0C94131D0C940000EF92FF920F931F93F22FF02E47FD02C0F0
:20154000E4E001C0E4E1242F332727FD309537FF03C0309521953F4F4F2D512F0F2FEE2E53
:201560000E94DA0A8F2D912F1F910F91FF90EF900895FB019F01E8944230C4F04532B4F411
:201580004A3029F497FB1EF4909581959F4F642F77270E94C21C805D8A330CF0895D8193A6
:2015A000CB010097A1F716F45DE251931082C9010C94140DA9E0B0E0E0EEFAE00C94E01C89
:2015C0006A01122FA02EBE2C2BE3201718F42CE3922E02C0902E9394AE014F5F5F4F27E0CE
:2015E000092D0E943C0CBC018981E82EFF24C70189709070019711F4ADE209C0B1FE02C0A4
:20160000ABE205C0B0FC02C0A0E001C0A0E2E3FE3BC0AA2311F423E001C024E0211710F099
:2016200020E002C0121B212FEB2CB4FE02C0322F0AC0F601322F80E202C08193315033234E
:20164000E1F7C20ED11CAA2319F0F601A1936F01F6013196E2FE05C09EE4D6019C9381E434
:2016600004C09EE6D6019C9381E611968C9391833296DF01832F90E202C09D9381508823A1
:20168000E1F7E30FF11D40C0E2FE42C0AA2311F423E001C024E0211710F020E002C0121BCF
:2016A000212FEB2CB4FE02C0922F0AC0F601922F80E202C0819391509923E1F7C20ED11CA2
:2016C000AA2319F0F601A1936F01F6013196E2FE08C089E4D6018C938EE411968C9386E42E
:2016E00007C089E6D6018C938EE611968C9386E681833296DF01892F20E202C02D9381505F
:201700008823E1F7E90FF11D10822EEF3FEFAFC0161617061CF041E050E003C0AB014F5F31
:201720005F4FAA2019F480E090E003C08A2D90E0019620E030E0AA2311F021E030E0240FB1
:20174000351F280F391F812F90E02817390714F020E002C0121B212F4B2D50E0CA01807160
:201760009070B4FC0DC0B3FC0BC0F601322F40E202C0419331503323E1F7C20ED11C01C035
:20178000322FAA2319F0F601A1936F01892B11F0132F0AC0F601132F80E302C081931150E3
:2017A0001123E1F7C30ED11C092D060FBA8090E1892E912C8E209F20E4FE04C0F1E3BF1639
:2017C00009F40150101614F001E003C0093008F008E09B0177FF02C020E030E0CB0101968D
:2017E000821B930BFE013196E80FF91F8EE2F82E3B01601A71088A2D90E044275527481BA3
:20180000590B8FEF2F3F380719F4D601FD926D01621773072CF06216730614F4808101C08E
:2018200080E32150304031962417350724F0D6018D936D01E6CF2617370749F4B5E3BB15D8
:2018400028F0BB1621F48114910409F481E3F6018193D601812F90E202C09C938150119692
:201860008823D9F7E10FF11D108220E030E0C9012996EEE00C94FC1C283008F027E033278D
:20188000DA01990F311D87FD916000966105710539F432602E5F3D9330E32A95E1F708952D
:2018A0009F3F30F080387105610509F03C5F3C5F3D93913008F08068911DDF93CF931F93C2
:2018C0000F93FF92EF92192F987F9695E92F96959695E90FFF27E95CFB4E99273327EE2484
:2018E000FF24A701E70105900894079428F4360FE71EF81E491F511D660F771F881F991FAD
:201900000694A1F70590079428F4E70EF81E491F561FC11D770F881F991F661F0694A1F7E7
:201920000590079428F4F80E491F561FC71FD11D880F991F661F771F0694A1F705900794D8
:2019400020F4490F561FC71FD81F990F661F771F881F0694A9F784911095177041F0D69548
:20196000C79557954795F794E7941A95C1F7EDEDF3E168941590159135916591959105906A
:201980007FE27395E118F10A430B560BC90BD009C0F7E10CF11E431F561FC91FD01D7EF4BD
:2019A000703311F48A95E6CFE894015030F0080F0AF40027021708F4202F2395022F7A3388
:2019C00028F079E37D932A95E9F710C07D932A9589F6069497956795379517951794E118E8
:2019E000F10A430B560BC90BD00998F023957E9173957A3308F070E37C932013B8F77E9141
:201A000070617D9330F0839571E37D9370E32A95E1F71124EF90FF900F911F91CF91DF91FC
:201A2000992787FD90950895DC01FC01672F71917723E1F7329704C07C916D93708362913C
:201A4000AE17BF07C8F3089589E080936C028AE080936D028BE080936E028DE080936F02EE
:201A60008CE0809370020895CF92EF92FF920F931F937B018C01433009F451C0443009F416
:201A800098C0423011F0CC24E3C023E333E343EF50E40E94391C87FF02C0CC240DC0CC247A
:201AA000C801B7012AE939E949EF50E40E94EA1A882314F4CC24C394C801B7012AE939E9AE
:201AC00049EF50E40E94391C882364F0C801B70120E030E040E051E40E94EA1A882314F465
:201AE00092E0C92EC801B70120E030E040E051E40E94391C882364F0C801B70123E333E304
:201B000043E051E40E94EA1A882314F483E0C82EC801B70123E333E343E051E493C026E667
:201B200036E646E351E40E94391C87FF02C0CC240DC0CC24C801B70123E333E34BE351E43F
:201B40000E94EA1A882314F4CC24C394C801B70123E333E34BE351E40E94391C882364F0EF
:201B6000C801B70120E030E040E451E40E94EA1A882314F4B2E0CB2EC801B70120E030E006
:201B800040E451E40E94391C882364F0C801B7012DEC3CEC44E451E40E94EA1A882314F47E
:201BA000A3E0CA2EC801B7012DEC3CEC44E451E449C023E333E343E751E40E94391C87FF8A
:201BC00002C0CC240DC0CC24C801B7012AE939E949E751E40E94EA1A882314F4CC24C394DB
:201BE000C801B7012AE939E949E751E40E94391C882364F0C801B70120E030E040E851E4E6
:201C00000E94EA1A882314F4F2E0CF2EC801B70120E030E040E851E40E94391C882364F0B8
:201C2000C801B70123E333E343E851E40E94EA1A882314F4E3E0CE2EC801B70123E333E3F2
:201C400043E851E40E94391C882314F074E0C72E2C2D30E065E0220F331F6A95E1F72859AC
:201C60003F4F8CE692E064E640E000E150E1E52ECC24C3940E947D141F910F91FF90EF908B
:201C8000CF900895CF92EF920F93AC018897449710F422E006C020E0CA014497449708F4D4
:201CA00021E0CA01CC97449708F423E0405550404531510508F424E030E065E0220F331F52
:201CC0006A95E1F7285F3E4F8CE692E060E040E000E150E1E52ECC24C3940E947D140F9196
:201CE000EF90CF9008950F931F93E091590288E2E89FF001112480915A0225E0829FC001DE
:201D00001124E80FF91FBD97F093C502E093C40209EA11E0E00FF11F88E060810E94521771
:201D2000E091C402F091C502E00FF11F87E061810E945217E091C402F091C502E00FF11F53
:201D400086E062810E945217E091C402F091C502E00FF11F8EE063810E9452178091C4027D
:201D60009091C502080F191F85E0F80164810E9452171F910F91089585E10E94F116089545
:201D800081E10E94F11608958FE060E00E94131780E160E00E941317089588E061E00E94CB
:201DA000131787E061E00E94131786E061E00E94131785E061E00E9413178EE061E00E944F
:201DC000131708950E94BC0E9093780280937702AA2797FDA095BA2FBC01CD010E94891B53
:201DE00028E63EEA43E55BE30E943D1C6093790270937A0280937B0290937C0223E333E312
:201E000043E35FE30E94851A2AE037E545E852E40E943D1C0E94561B70937E0260937D028D
:201E20001616170624F010927E0210927D0280917D0290917E028436910534F084E690E083
:201E400090937E0280937D0280917D0290917E026FE872E04AE050E00E94B90A8CE692E0D0
:201E60006EE240E020E031E00E945D138CE692E068E140E02FE832E00E945D1380917D02B7
:201E800090917E020E94420E80917D0290917E020895CF92DF92EF92FF920F931F930CE6B7
:201EA000C02E02E0D02EC60160E142E022E031E00E945D13E0915902F0E0EE0FFF1FE95B0A
:201EC000FD4F20813181C60160E044E00E941F14BFE8EB2EB2E0FB2E80915A0290E0B70153
:201EE0004AE050E00E94B90AC60168E144E097010E941F1480915A02E0915902F0E03197B1
:201F0000A3E0EE0FFF1FAA95E1F7E80FF11DEE0FFF1FEE0FFF1FEB5DFE4F60817181828166
:201F2000938145E023E087010E94980AC60168E446E097010E945D13C60168E646E025E076
:201F400031E00E945D131F910F91FF90EF90DF90CF900895EF92FF920F931F930E94C00EBF
:201F60009093720280937102AA2797FDA095BA2FBC01CD010E94891B21E338E842E952E46B
:201F80000E94EE1AFB01DC019B01AC01209373023093740240937502509376028FE8E82EE2
:201FA00082E0F82EBF01CD0144E021E087010E94980A0CE612E0C8016CE542E097010E94C0
:201FC0005D13C80168E742E029E031E00E945D13609173027091740280917502909176022D
:201FE0004091C7020E94340D1F910F91FF90EF900895DF92EF92FF920F931F93CF93DF93BE
:20200000E0905902F0905A0210925A0281E080935902C0E0D0E000E010E0DD24D3948CE652
:2020200092E00E94D71480915A028F5F80935A02893058F0D0925A02809159028F5F8093AB
:202040005902853010F0D0925902C0FD08C08CE692E060E444E02BE031E00E945D130E9412
:20206000AA0F0E94490F0E94730E6CE271E080E090E00E945D160E94E20E081719072CF415
:20208000E0905902F0905A028C018CE692E00E942A152196C032D10511F6E0925902F09272
:2020A0005A02DF91CF911F910F91FF90EF90DF9008950F931F938CE692E00E94D71480E164
:2020C0000E94A6178C018FE00E94A617892B51F4809159028F5F80935902853018F081E067
:2020E0008093590280915102909152020817190721F11093520200935102012BF1F50E94B7
:202100004F1660937F0270938002809381029093820280915A028F5F80935A02893068F148
:2021200091E090935A02809159028F5F80935902853018F19093590220C0012BF1F40E9418
:202140004F1620917F02309180024091810250918202621B730B840B950B209155023091F9
:2021600056024091570250915802261737074807590718F481E08093C6020E944F16209178
:202180008702309188024091890250918A02621B730B840B950B655F71408040904008F477
:2021A0005BC00E944F1660938702709388028093890290938A020E94C00E9093720280938D
:2021C0007102AA2797FDA095BA2FBC01CD010E94891B21E338E842E952E40E94EE1A9B016D
:2021E000AC012093730230937402409375025093760244E021E00FEA12E00E94980A8091C7
:20220000C702823069F4609173027091740280917502909176022DEC3CEC4CEE50E40EC06B
:202220008330A1F4609173027091740280917502909176022AE939E941E351E40E94EA1A24
:20224000181624F081E08093C80206C081E090E090935402809353028CE692E06CE542E02F
:202260002FEA32E00E945D138CE692E068E742E029E031E00E945D136091730270917402C3
:2022800080917502909176024091C7020E94340D0E944F1620918B0230918C0240918D02AC
:2022A00050918E02621B730B840B950B655F71408040904008F456C00E944F1660938B02E5
:2022C00070938C0280938D0290938E020E94BC0E9093780280937702AA2797FDA095BA2F00
:2022E000BC01CD010E94891B28E63EEA43E55BE30E943D1C6093790270937A0280937B02F9
:2023000090937C0223E333E343E35FE30E94851A2AE037E545E852E40E943D1C0E94561BC0
:2023200070937E0260937D021616170624F010927E0210927D0280917D0290917E0284361D
:20234000910534F084E690E090937E0280937D0280917D0290917E0269EB72E04AE050E083
:202360000E94B90A8CE692E06EE240E020E031E00E945D138CE692E068E140E029EB32E00E
:202380000E945D1380917D0290917E020E94420EE0915902F0E0EE0FFF1FE95BFD4F208120
:2023A00031818CE692E060E044E00E941F1480915A028093C30290E06FE872E04AE050E096
:2023C0000E94B90A8CE692E068E144E02FE832E00E941F148CE692E060E142E022E031E0EF
:2023E0000E945D1380915A02E0915902F0E0319723E0EE0FFF1F2A95E1F7E80FF11DEE0F43
:20240000FF1FEE0FFF1FEB5DFE4F608171818281938145E023E00FE812E00E94980A8CE63D
:2024200092E068E446E098010E945D138CE692E068E646E025E031E00E945D138091C602B4
:20244000813081F48CE692E060E444E027E131E00E945D138CE692E00E942A150E94F90F70
:202460001092C6028CE692E00E942A15E091590288E2E89FF001112480915A0225E0829FB7
:20248000C0011124E80FF91FBD97F093C502E093C402E755FE4F88E060810E945217E09112
:2024A000C402F091C502E755FE4F87E061810E945217E091C402F091C502E755FE4F86E0C3
:2024C00062810E945217E091C402F091C502E755FE4F8EE063810E945217E091C402F091F1
:2024E000C502E755FE4F85E064810E9452170E944F1620918302309184024091850250917A
:202500008602621B730B840B950B695E73408040904098F189EC96E060E070E040915A02CE
:202520000E94FB1589EC96E064E070E0409159020E94FB158091C802813081F420E030E07B
:202540008091530290915402892B11F421E030E030935402209353021092C80283E06091F3
:2025600053020E9452170E944F16609383027093840280938502909386021F910F910895C1
:20258000EF92FF920F931F930E94CD0E0E94C40E83E061E00E94131783E061E00E945217C5
:2025A0000E94C00E9093720280937102AA2797FDA095BA2FBC01CD010E94891B21E338E816
:2025C00042E952E40E94EE1A7B018C016093730270937402809375029093760220E030E0D1
:2025E00040E151E40E94EA1A882314F482E01FC0C801B70120E030E040E151E40E94391C0D
:20260000181654F4C801B70120E030E048E551E40E94EA1A882354F0C801B70120E030E02B
:2026200048E551E40E94391C18161CF483E08093C7028BE597E040E855E260E070E00E944C
:20264000C5188CE692E062E00E9449156CE271E080E090E00E945D168CE692E00E94D71482
:2026600089EC96E060E070E00E94F41580935A0289EC96E064E070E00E94F415809359022D
:202680000E944F166093830270938402809385029093860280915A02893018F081E080934B
:2026A0005A0280915902853018F081E0809359021F910F91FF90EF9008950F931F93CF9315
:2026C000DF93162FE90105E02CC04830F8F41A37E8F4242F30E03695322F22273795279597
:2026E000512FE09FC001112427533D4FBC016B5F7F4FFC01E857F14FE491D901A50FB11D3D
:20270000EC935F5F01968617970799F71A5F812F90E08A37910514F04F5F10E0483020F4FC
:202720002196E881EE2389F6DF91CF911F910F9108955F926F927F928F929F92AF92BF9245
:20274000CF92DF92EF92FF920F931F93CF93DF93562EE22F2A3308F0E750842F90E020E623
:20276000E29FA0011124405052419695982F8827979587957A018A01EA0160E070E0A1E0F4
:202780006A2EA4E07A2E680E791EE9E98E2EE3E09E2E880E991E21E3A22E23E0B22EA80E91
:2027A000B91EA9ECCA2EA2E0DA2EC80ED91E362F262F250D683130F4FA01E858FB4FE491BB
:2027C000D6011CC0862F8851883130F4F701E858FB4FE491D50112C0862F8053883130F4D7
:2027E000F801E858FB4FE491D40108C03854383140F4FE01E858FB4FE491D301A20FB11DCA
:20280000EC936F5F7F4F4F5F5F4F0894E11CF11C0F5F1F4F21966036710509F0C8CFDF91FC
:20282000CF911F910F91FF90EF90DF90CF90BF90AF909F908F907F906F905F900895EF9215
:20284000FF920F931F93CF93DF937C01162F042FE9010EC0C701612F402F0E949913185E87
:20286000812F90E08836910514F00F5F10E021962881222379F7DF91CF911F910F91FF90BE
:20288000EF90089567FD38C04034B0F5E42FE695E695E69570E050E02130B9F4F0E0F6954A
:2028A000FE2FEE27F795E795E60FF71FE753FD4F4770507081E090E002C0880F991F4A9505
:2028C000E2F72081282B20830895F0E0F695FE2FEE27F795E795E60FF71FE753FD4F4770FE
:2028E000507081E090E002C0880F991F4A95E2F7809520812823208308952F923F924F92CA
:202900005F926F927F928F929F92AF92BF92CF92DF92EF92FF920F931F93CF93DF934C0177
:20292000262E342E5901702E6E2C00E061E0462E512C13C0FE01849190E08E219F21892BC3
:2029400039F0612F620DC4014D2D2C2D0E9442141F5F2196171570F30F5F0615A8F4802F27
:202960008770720102C0EE0CFF1C8A95E2F7802F869586958695879DE0011124CA0DDB1D15
:2029800010E0D02ED30CE6CFDF91CF911F910F91FF90EF90DF90CF90BF90AF909F908F90DD
:2029A0007F906F905F904F903F902F90089580E094E0E9ECF2E0DF019C011D922150304088
:2029C000E1F70895FF920F931F938C01F62EFC01848161E00E945217F801828161E00E94BF
:2029E0005217F801848160E00E945217F8018081618141E02F2D0E94F917F801848161E0DB
:202A00000E9452171F910F91FF900895FF920F931F938C01F62EFC01848161E00E9452174B
:202A2000F801828160E00E945217F801848160E00E945217F8018081618141E02F2D0E940B
:202A4000F917F801848161E00E9452171F910F91FF9008950F931F93CF93DF938C0160E0AB
:202A60000E940615C80160E10E940615C80160E40E940615C9ECD2E0C80169910E94E21446
:202A800086E0C93CD807C1F7DF91CF911F910F9108951F93CF93DF93EC01162F888161E075
:202AA0000E941317898161E00E9413178A8161E00E9413178B8161E00E9413178C8161E0B4
:202AC0000E9413178B8161E00E94521761E070E080E090E00E945D168B8160E00E94521705
:202AE0006AE070E080E090E00E945D168B8161E00E945217CE016EEA0E940615CE0165EDFA
:202B00000E940615CE0160E80E940615CE0168EA0E940615CE016FE30E940615CE0163ED49
:202B20000E940615CE0160E00E940615CE0160E40E940615CE016DE80E940615113019F40D
:202B4000CE0160E102C0CE0164E10E940615CE0160E20E940615CE0160E00E940615CE0169
:202B600061EA0E940615CE0168EC0E940615CE016AED0E940615CE0162E10E940615CE01EC
:202B800061E80E940615113019F4CE016FE902C0CE016FEC0E940615CE0169ED0E9406152F
:202BA000113019F4CE0162E202C0CE0161EF0E940615CE016BED0E940615CE0160E40E947D
:202BC0000615CE0164EA0E940615CE0166EA0E940615CE010E942A15CE016FEA0E9406158F
:202BE000DF91CF911F910895F999FECF72BD61BDF89A80B50895F999FECF1FBA72BD61BD23
:202C000040BD0FB6F894FA9AF99A0FBE08951F920F920FB60F9211242F933F938F939F9300
:202C2000AF93BF938091CE069091CF06A091D006B091D1063091D2060196A11DB11D232FF8
:202C40002D5F2D3720F02D570196A11DB11D2093D2068093CE069093CF06A093D006B09317
:202C6000D1068091CA069091CB06A091CC06B091CD060196A11DB11D8093CA069093CB0699
:202C8000A093CC06B093CD06BF91AF919F918F913F912F910F900FBE0F901F9018958FB7FC
:202CA000F8942091CE063091CF064091D0065091D1068FBFB901CA0108959B01AC017FB71F
:202CC000F8948091CA069091CB06A091CC06B091CD0666B5A89B05C06F3F19F00196A11D4F
:202CE000B11D7FBFBA2FA92F982F8827860F911DA11DB11D62E0880F991FAA1FBB1F6A958F
:202D0000D1F7BC012DC0FFB7F8948091CA069091CB06A091CC06B091CD06E6B5A89B05C072
:202D2000EF3F19F00196A11DB11DFFBFBA2FA92F982F88278E0F911DA11DB11DE2E0880F14
:202D4000991FAA1FBB1FEA95D1F7861B970B885E9340C8F2215030404040504068517C4FA6
:202D6000211531054105510571F60895789484B5826084BD84B5816084BD85B5826085BD26
:202D800085B5816085BDEEE6F0E0808181608083E1E8F0E01082808182608083808181605A
:202DA0008083E0E8F0E0808181608083E1EBF0E0808184608083E0EBF0E08081816080838F
:202DC000EAE7F0E08081846080838081826080838081816080838081806880831092C10050
:202DE0000895982F8E3008F09E50977080915B028295880F880F807C892B80937C008091C1
:202E00007A00806480937A0080917A0086FDFCCF2091780040917900942F80E030E0282BF5
:202E2000392BC9010895CF93DF93482F50E0CA018B549C4EFC0134914F555C4EFA01849198
:202E4000882369F190E0880F991FFC01ED57FC4EA591B491FC01E357FC4EC591D4916623E3
:202E600051F42FB7F8948C91932F909589238C93888189230BC0623061F42FB7F8948C91D6
:202E8000932F909589238C938881832B88832FBF06C09FB7F8948C91832B8C939FBFDF9170
:202EA000CF910895482F50E0CA0187539C4EFC012491CA018B549C4EFC0194914F555C4E29
:202EC000FA013491332309F440C0222351F1233071F0243028F42130A1F0223011F514C026
:202EE0002630B1F02730C1F02430D9F404C0809180008F7703C0809180008F7D8093800064
:202F000010C084B58F7702C084B58F7D84BD09C08091B0008F7703C08091B0008F7D809327
:202F2000B000E32FF0E0EE0FFF1FE357FC4EA591B4912FB7F894662321F48C9190958923E7
:202F400002C08C91892B8C932FBF0895682F70E0CB0187539C4EFC012491CB018B549C4E76
:202F6000FC0144916F557C4EFB019491992319F420E030E03CC0222351F1233071F024306C
:202F800028F42130A1F0223011F514C02630B1F02730C1F02430D9F404C0809180008F778C
:202FA00003C0809180008F7D8093800010C084B58F7702C084B58F7D84BD09C08091B0003D
:202FC0008F7703C08091B0008F7D8093B000892F90E0880F991F89569C4EFC01A591B491E0
:202FE0008C9120E030E0842311F021E030E0C9010895BF92CF92DF92EF92FF920F931F93FB
:20300000CF93DF93E82EF62EB42EC7E0D0E0022F10E087E0C82ED12CBB2059F4B6016C1B88
:203020007D0BC80102C0959587956A95E2F7BC0107C0B8010C2E02C0759567950A94E2F7A9
:2030400061708E2D0E9452178F2D61E00E9452178F2D60E00E94521721979FEFCF3FD90796
:20306000D9F6DF91CF911F910F91FF90EF90DF90CF90BF90089508951F920F920FB60F9244
:2030800011242F933F934F938F939F93EF93FF938091C00082FD1DC04091C600209113078E
:2030A000309114072F5F3F4F2F73307080911507909116072817390771F0E0911307F0917F
:2030C0001407ED52F94F4083309314072093130702C08091C600FF91EF919F918F914F9107
:2030E0003F912F910F900FBE0F901F901895E0916707F0916807E05CFF4F819191912081AB
:203100003181821B930B8F739070892B11F00E943B1808951F920F920FB60F9211242F93CA
:203120003F938F939F93EF93FF9320915707309158078091590790915A072817390731F48F
:203140008091C1008F7D8093C10014C0E0915907F0915A07E95EF84F208180915907909175
:203160005A0701968F73907090935A07809359072093C600FF91EF919F918F913F912F91F5
:203180000F900FBE0F901F901895AF92BF92DF92EF92FF920F931F93CF93DF93EC017A0123
:2031A0008B01DD24403081EE580780E0680780E0780711F0DD24D39491E0A92EB12CEC8993
:2031C000FD89DD2069F0C50108A002C0880F991F0A94E2F7808360E079E08DE390E005C0DC
:2031E000108260E874E88EE190E0A80197010E94A01C215030404040504056954795379597
:20320000279580E12030380720F0DD2011F0DD24D6CFE889F9893083EA89FB89208319A253
:20322000EE89FF89408121E030E0C9010C8C02C0880F991F0A94E2F7482B4083EE89FF899E
:203240004081C9010D8C02C0880F991F0A94E2F7482B4083EE89FF894081C9010E8C02C0A6
:20326000880F991F0A94E2F7482B4083EE89FF8980810F8C02C0220F331F0A94E2F7209546
:2032800028232083DF91CF911F910F91FF90EF90DF90BF90AF900895DC011C96ED91FC91DE
:2032A0001D97E05CFF4F2191319180819181281B390B2F733070C9010895DC011C96ED910C
:2032C000FC911D97E05CFF4F20813181E054F040DF01AE5BBF4F8D919C9111972817390703
:2032E00019F42FEF3FEF07C08D919C91E80FF91F8081282F30E0C9010895DC011C96ED9178
:20330000FC911D97E05CFF4F20813181E054F040DF01AE5BBF4F8D919C91119728173907C2
:2033200019F42FEF3FEF10C08D919C911197E80FF91F20818D919C91119701968F73907035
:2033400011969C938E9330E0C9010895DC0191968C919197882339F05496ED91FC91559701
:20336000808186FFF9CF91961C920895CF93DF93EC01EE85FF85E05CFF4F20813181E054C4
:20338000F0402F5F3F4F2F733070DF01AE5BBF4F8D919C91119728173907D1F3E05CFF4FE8
:2033A00080819181E054F040E80FF91F6083EE85FF85E05CFF4F31832083EE89FF8920812C
:2033C00081E090E00F8C02C0880F991F0A94E2F7282B208381E089A3EC89FD898081806496
:2033E000808381E090E0DF91CF91089510925E0710925D0788EE93E0A0E0B0E080935F070D
:2034000090936007A0936107B093620780E692E090935C0780935B0783ED96E09093680790
:203420008093670787E197E090936A078093690785EC90E090936C0780936B0784EC90E039
:2034400090936E0780936D0780EC90E09093700780936F0781EC90E090937207809371074A
:2034600082EC90E0909374078093730786EC90E0909376078093750784E08093770783E0DA
:203480008093780787E08093790785E080937A0781E080937B070895CF93DF930E94B616D2
:2034A0000E94C012C7E7D8E10E9459102097E1F30E947718F9CFCF92DF92EF92FF920F931C
:2034C0001F93CF93DF937C016B018A01C0E0D0E00FC0D6016D916D01D701ED91FC9101901C
:2034E000F081E02DC7010995C80FD91F015010400115110571F7CE01DF91CF911F910F91F5
:20350000FF90EF90DF90CF9008955058BB27AA270ED075C166D130F06BD120F031F49F3F1D
:2035200011F41EF45BC10EF4E095E7FB51C1E92F77D180F3BA17620773078407950718F037
:2035400071F49EF58FC10EF4E0950B2EBA2FA02D0B01B90190010C01CA01A0011124FF2792
:20356000591B99F0593F50F4503E68F11A16F040A22F232F342F4427585FF3CF469537951A
:203580002795A795F0405395C9F77EF41F16BA0B620B730B840BBAF09150A1F0FF0FBB1F71
:2035A000661F771F881FC2F70EC0BA0F621F731F841F48F4879577956795B795F7959E3F2E
:2035C00008F0B3CF9395880F08F09927EE0F979587950895D9D008F481E008950CD00FC1C9
:2035E00007D140F0FED030F021F45F3F19F0F0C0511139C1F3C014D198F39923C9F35523FA
:20360000B1F3951B550BBB27AA2762177307840738F09F5F5F4F220F331F441FAA1FA9F3A6
:2036200033D00E2E3AF0E0E830D091505040E695001CCAF729D0FE2F27D0660F771F881FC1
:20364000BB1F261737074807AB07B0E809F0BB0B802DBF01FF2793585F4F2AF09E3F510544
:2036600068F0B6C000C15F3FECF3983EDCF3869577956795B795F7959F5FC9F7880F911D9B
:203680009695879597F90895E1E0660F771F881FBB1F621773078407BA0720F0621B730B1F
:2036A000840BBA0BEE1F88F7E095089504D06894B111D9C00895BCD088F09F5790F0B92FEE
:2036C0009927B751A0F0D1F0660F771F881F991F1AF0BA95C9F712C0B13081F0C3D0B1E006
:2036E0000895C0C0672F782F8827B85F39F0B93FCCF3869577956795B395D9F73EF4909538
:203700008095709561957F4F8F4F9F4F0895E89409C097FB3EF490958095709561957F4F56
:203720008F4F9F4F9923A9F0F92F96E9BB279395F695879577956795B795F111F8CFFAF405
:20374000BB0F11F460FF1BC06F5F7F4F8F4F9F4F16C0882311F096E911C0772321F09EE8F5
:20376000872F762F05C0662371F096E8862F70E060E02AF09A95660F771F881FDAF7880F19
:203780009695879597F90895990F0008550FAA0BE0E8FEEF16161706E807F907C0F0121627
:2037A0001306E407F50798F0621B730B840B950B39F40A2661F0232B242B252B21F408950A
:2037C0000A2609F4A140A6958FEF811D811D089597F99F6780E870E060E008959FEF80EC24
:2037E000089500240A941616170618060906089500240A9412161306140605060895092E5B
:203800000394000C11F4882352F0BB0F40F4BF2B11F460FF04C06F5F7F4F8F4F9F4F0895FE
:2038200057FD9058440F551F59F05F3F71F04795880F97FB991F61F09F3F79F0879508952F
:20384000121613061406551FF2CF4695F1DF08C0161617061806991FF1CF8695710561058F
:2038600008940895E894BB2766277727CB0197F908958ADF08F48FEF08950BD0C0CFB1DF13
:2038800028F0B6DF18F0952309F0A2CFA7CF1124EACFC6DFA0F3959FD1F3950F50E0551F75
:2038A000629FF001729FBB27F00DB11D639FAA27F00DB11DAA1F649F6627B00DA11D661F61
:2038C000829F2227B00DA11D621F739FB00DA11D621F839FA00D611D221F749F3327A00DCC
:2038E000611D231F849F600D211D822F762F6A2F11249F5750408AF0E1F088234AF0EE0F63
:20390000FF1FBB1F661F771F881F91505040A9F79E3F510570F05CCFA6CF5F3FECF3983E56
:20392000DCF3869577956795B795F795E7959F5FC1F7FE2B880F911D9695879597F90895A9
:20394000A1E21A2EAA1BBB1BFD010DC0AA1FBB1FEE1FFF1FA217B307E407F50720F0A21B41
:20396000B30BE40BF50B661F771F881F991F1A9469F760957095809590959B01AC01BD01D7
:20398000CF010895AA1BBB1B51E107C0AA1FBB1FA617B70710F0A61BB70B881F991F5A9537
:2039A000A9F780959095BC01CD010895EE0FFF1F0590F491E02D09942F923F924F925F92C2
:2039C0006F927F928F929F92AF92BF92CF92DF92EF92FF920F931F93CF93DF93CDB7DEB7CC
:2039E000CA1BDB0B0FB6F894DEBF0FBECDBF09942A88398848885F846E847D848C849B84D0
:203A0000AA84B984C884DF80EE80FD800C811B81AA81B981CE0FD11D0FB6F894DEBF0FBE91
:203A2000CDBFED010895F894FFCF250043480047487A0056005363616E6E696E672E2E2E4B
:203A4000004175746F206D6F646500410042004500460014AEBB403D0ABB406666BA408FA6
:203A6000C2B940B81EB940E17AB8400AD7B7403333B740BC74B7406210B84008ACB840AE49
:203A800047B94054E3B940FA7EBA40A01ABB4046B6BB405C8FB64085EBB540AE47B540D791
:203AA000A3B440EC51BC40C3F5BC409A99BD40713DBE4014AEB740EC51B840C3F5B8409A6E
:203AC00099B940713DBA4048E1BA401F85BB40F628BC4001010100000101000000010001C9
:203AE0000000010000000000010100000001000000000001000000000000000000000100C0
:203B0000000001010000010001000001010100010000010001000101000101000100010194
:203B2000010100000000000100000100010001000001000101000101000000010100010077
:203B4000010101000001010101000100000001010000010101000100010100010101010150
:203B600000000101010001010101010001010101010101210123012501270101000100B0F0
:203B800004000001010100000000B6195B1A4C197D195D19A619FFFFFFFFFFFFFFFFFFFFB4
:203BA000FFFFFFFFFFFFFFFFFFFFFFFFFFFFFFFFFFFFFFFFFFFFFFFFFFFFFFFFFFFFFFFF25
:203BC000FFFFFFFFFFFFFFFFFFFFFFFFFFFFFFFFFFFFFFFFFFFFFFFFFFFFFFFFFFFFFFFF05
:203BE000FFFFFFFFFFFFFFFFFFFFFFFFFFFFFFFFFFFFFFFFFFFFFFFFFFFFFFFFFFFFFFFFE5
:203C0000FFFFFFFFFFFFFFFFFFFFFFFFFFFFFFFFFFFFFFFFFFFFFFFFFFFFFFFFFFFFFFFFC4
:207800000C94343C0C94513C0C94513C0C94513C0C94513C0C94513C0C94513C0C94513C1D
:207820000C94513C0C94513C0C94513C0C94513C0C94513C0C94513C0C94513C0C94513CE0
:207840000C94513C0C94513C0C94513C0C94513C0C94513C0C94513C0C94513C0C94513CC0
:207860000C94513C0C94513C11241FBECFEFD8E0DEBFCDBF11E0A0E0B1E0ECE9FFE702C07E
:2078800005900D92A230B107D9F712E0A2E0B1E001C01D92AD30B107E1F70E942D3D0C94CC
:2078A000CC3F0C94003C982F9595959595959595905D8F708A307CF0282F295A8091C000B5
:2078C00085FFFCCF9093C6008091C00085FFFCCF2093C6000895282F205DF0CF982F8091CF
:2078E000C00085FFFCCF9093C6000895EF92FF920F931F93EE24FF2487018091C00087FD7B
:2079000017C00894E11CF11C011D111D81E4E81682E4F8068FE0080780E0180770F3E09106
:207920000401F091050109958091C00087FFE9CF8091C6001F910F91FF90EF9008950E949A
:20794000763C982F8091C00085FFFCCF9093C60091362CF490330CF09053892F08959755DB
:20796000892F08951F930E949F3C182F0E949F3C1295107F810F1F9108951F93182F882308
:2079800021F00E94763C1150E1F71F9108951F93182F0E94763C803249F0809103018F5FC1
:2079A000809303018530C1F01F9108958091C00085FFFCCF84E18093C6008091C00085FF4A
:2079C000FCCF1093C6008091C00085FFFCCF80E18093C6001F910895E0910401F0910501CF
:2079E00009951F9108950E94763C803241F0809103018F5F80930301853081F00895809177
:207A0000C00085FFFCCF84E18093C6008091C00085FFFCCF80E18093C6000895E0910401AC
:207A2000F09105010995089540E951E08823A1F02D9A28EE33E0FA013197F1F72150304072
:207A4000D1F72D9828EE33E0FA013197F1F721503040D1F7815061F708953F924F925F92B3
:207A60006F927F928F929F92AF92BF92CF92DF92EF92FF920F931F93CF93DF93000080E1A3
:207A80008093C4001092C50088E18093C10086E08093C2005098589A259A81E00E94143D43
:207AA00024E1F22E9EE1E92E85E9D82E0FE0C02E10E1B12EAA24A394B1E49B2EA6E58A2E44
:207AC000F2E57F2EE0E26E2E79E4572E63E5462E50E5352E0E94763C8033B1F18133B9F187
:207AE000803409F46FC0813409F476C0823409F485C0853409F488C0803531F1823521F128
:207B0000813511F1853509F485C0863509F48DC0843609F496C0843709F403C1853709F46A
:207B200072C1863709F466C0809103018F5F80930301853079F6E0910401F0910501099559
:207B40000E94763C803351F60E94F33CC3CF0E94763C803249F78091C00085FFFCCFF0928C
:207B6000C6008091C00085FFFCCF9092C6008091C00085FFFCCF8092C6008091C00085FFEA
:207B8000FCCF7092C6008091C00085FFFCCF6092C6008091C00085FFFCCF5092C6008091A1
:207BA000C00085FFFCCF4092C6008091C00085FFFCCF3092C6008091C00085FFFCCFB09214
:207BC000C60088CF0E94763C863808F4BDCF0E94763C0E94F33C7ECF0E94763C803809F473
:207BE0009CC0813809F40BC1823809F43CC1883909F48FC080E00E94C73C6CCF84E10E949F
:207C0000BD3C0E94F33C66CF85E00E94BD3C0E94F33C60CF0E94763C809306010E94763CA3
:207C2000809307010E94F33C55CF0E94763C803309F41DC183E00E94BD3C80E00E94C73C4F
:207C400049CF0E94763C809309020E94763C8093080280910C028E7F80930C020E94763C88
:207C6000853409F415C18091080290910902892B89F000E010E00E94763CF801E85FFE4F53
:207C800080830F5F1F4F80910802909109020817190788F30E94763C803209F045CF8091E0
:207CA0000C0280FF01C16091060170910701660F771F7093070160930601A0910802B091E8
:207CC00009021097C9F0E8E0F1E09B01AD014E0F5F1FF999FECF32BD21BD819180BDFA9A6C
:207CE000F99A2F5F3F4FE417F50799F76A0F7B1F70930701609306018091C00085FFFCCF16
:207D0000F092C6008091C00085FFFCCFB092C600E1CE83E00E94C73CDDCE82E00E94C73C8A
:207D2000D9CE0E94763C809309020E94763C809308028091060190910701880F991F909306
:207D40000701809306010E94763C853409F4A6C080910C028E7F80930C020E94763C80323E
:207D600009F0B8CE8091C00085FFFCCFF092C600609108027091090261157105B9F140E05F
:207D800050E080910C02A82FA170B82FB27011C0BB2309F45CC0E0910601F0910701319613
:207DA000F0930701E09306014F5F5F4F46175707E8F4AA2369F3F999FECF209106013091CA
:207DC000070132BD21BDF89A90B58091C00085FFFCCF9093C6002F5F3F4F30930701209354
:207DE00006014F5F5F4F4617570718F38091C00085FDE5CE8091C00085FFF8CFE0CE81E029
:207E00000E94C73C67CE0E94763C803209F08CCE8091C00085FFFCCFF092C6008091C000F6
:207E200085FFFCCFE092C6008091C00085FFFCCFD092C6008091C00085FFFCCFC092C6003B
:207E40008091C00085FFFCCFB092C60043CEE0910601F091070194918091C00085FFFCCFA3
:207E60009093C6009CCF80E10E94C73C33CE0E94763C0E94763C182F0E94763C112309F433
:207E800083C0113009F484C08FE00E94C73C22CE80910C02816080930C02E5CE80910C0226
:207EA000816080930C0259CF809107018823880F880B8A2180930B0280910601909107019E
:207EC000880F991F90930701809306018091080280FF09C0809108029091090201969093AA
:207EE000090280930802F894F999FECF1127E0910601F0910701C8E0D1E0809108029091A1
:207F00000902103091F40091570001700130D9F303E000935700E895009157000170013067
:207F2000D9F301E100935700E895099019900091570001700130D9F301E000935700E8954C
:207F40001395103498F011270091570001700130D9F305E000935700E8950091570001707A
:207F60000130D9F301E100935700E8953296029709F0C7CF103011F00296E5CF11248091F8
:1E7F8000C00085FFB9CEBCCE8EE10E94C73CA2CD85E90E94C73C9ECDF894FFCF8000B3
:00000001FF
